:100000000C942A000C944D020C949B020C94470013
:100010000C9447000C9447000C9447000C94E902A0
:100020000C9447000C9447000C9447000C94470034
:100030000C9447000C9447000C9447000C94470024
:100040000C9447000C9447000C9447000C947403E4
:100050000C94470011241FBECFE5D8E0DEBFCDBF12
:1000600010E0A0E6B0E0E6E4F9E002C005900D92F1
:10007000A63BB107D9F720E0A6EBB0E001C01D9286
:10008000AD3CB207E1F70E94B6030C94A1040C94B6
:10009000000087B38B6087BB8AE683BF1CBE0895D0
:1000A0008093C2008CBF089588B3816088BB88B3F9
:1000B0008D7F88BB089588B38C7F88BB80E00E94C9
:1000C0005000089581B3837F81BB82B38C6082BB73
:1000D00085B7856085BF85B7857F85BF8BB7806C09
:1000E0008BBF08958DE08EBD8CE093E09BBD8ABDF3
:1000F00089B7806189BF089580E282B985E486BFAF
:10010000089585B3886085BB82E08A95F1F700C0C9
:1001100085B3877F85BB85E88A95F1F70000089550
:1001200025B32F7030E1839FC0011124822B85BB42
:100130000E9481000895CF93C82F662321F085B3D4
:10014000846085BB03C085B38B7F85BB8C2F90E01B
:100150009595879595958795959587959595879587
:100160000E9490008C2F8F700E949000C150C2306E
:1001700030F48FE99FE00197F1F700C00000CF91C4
:10018000089560E00E949B000895811103C080E8FB
:10019000860F02C080EC860F0E94C100089561E0C6
:1001A0000E949B000895CF93DF93EC018881882300
:1001B00021F021960E94CF00F9CFDF91CF910895D1
:1001C00084B38C6F84BB2FE788E391E0215080409B
:1001D0009040E1F700C0000083E00E9490008FE0B3
:1001E00097E20197F1F700C0000083E00E949000C1
:1001F0008FEC97E00197F1F700C0000083E00E94C8
:1002000090008FEC97E00197F1F700C0000082E0CA
:100210000E9490008FEC97E00197F1F700C000007A
:1002200088E20E94C1008CE00E94C10086E00E942A
:10023000C10081E00E94C1008FE99FE00197F1F7C2
:1002400000C00000089581E00E94C1008FE99FE096
:100250000197F1F700C000000895AB01803509F463
:1002600042C08335D1F0853409F068C080936000C6
:100270000E945B000E94230160E080E00E94C500B4
:1002800081E690E00E94D30060E081E00E94C5001A
:100290008EE690E00E94D300089583E5809360008D
:1002A0007093C8006093C7008091C9009091CA0004
:1002B000A091CB00B091CC008093C3009093C40078
:1002C000A093C500B093C6001092C1001092C00068
:1002D000672B19F40E945B0008950E94540080E58A
:1002E0000E945000089580E5809360007093C800DC
:1002F0006093C7001092C9001092CA001092CB0000
:100300001092CC009B01A0E5B0E00E9452046093E3
:10031000BC007093BD008093BE009093BF0010920C
:10032000BB00452B31F40E945B0081E08093BB0051
:1003300008950E94540086E90E9450000895EF92AB
:10034000FF920F931F93CF93DF93CDB7DEB728971C
:100350000FB6F894DEBF0FBECDBF062F4AE09E0158
:100360002F5F3F4F7901B9010E946C04F7010190A2
:100370000020E9F731971E2F1E19101728F480E28C
:100380000E94CF001F5FF9CFCE0101960E94D300DB
:1003900028960FB6F894DEBF0FBECDBFDF91CF9188
:1003A0001F910F91FF90EF90089560E080E00E9410
:1003B000C5008BE790E00E94D3008091C700909128
:1003C000C80064E00E949F0180E890E00E94D30092
:1003D00060E081E00E94C50085E890E00E94D300C3
:1003E0008091C0009091C10064E00E949F0180E86C
:1003F00090E00E94D3000895CF92DF92EF92FF9297
:100400008091C9009091CA00A091CB00B091CC001E
:10041000BB234CF06091C9007091CA008091CB0061
:100420009091CC0003C060E070E0CB0120E530E0AB
:1004300040E050E00E94300469017A0160E080E011
:100440000E94C5008BE790E00E94D3008091C70016
:100450009091C80064E00E949F0186E990E00E94AC
:10046000D30060E081E00E94C50085E890E00E9432
:10047000D30064E0C6010E949F018091BB008823E5
:1004800019F08AE890E002C080E990E00E94D30071
:10049000FF90EF90DF90CF9008951F920F920FB6CC
:1004A0000F9211242F938F939F93AF93BF9380B399
:1004B00090E09595879595958795282F217080B325
:1004C00090E09595879595958795959587958170F9
:1004D000281314C08091C9009091CA00A091CB004C
:1004E000B091CC000196A11DB11D8093C9009093DD
:1004F000CA00A093CB00B093CC0013C08091C90078
:100500009091CA00A091CB00B091CC000197A109B5
:10051000B1098093C9009093CA00A093CB00B09317
:10052000CC00BF91AF919F918F912F910F900FBEF3
:100530000F901F9018951F920F920FB60F921124D3
:100540002F938F939F93AF93BF9380B390E0959534
:10055000879595958795282F217080B390E0959584
:100560008795959587959595879581702817A1F022
:100570008091C9009091CA00A091CB00B091CC00AD
:100580000196A11DB11D8093C9009093CA00A0934C
:10059000CB00B093CC0013C08091C9009091CA00E9
:1005A000A091CB00B091CC000197A109B109809333
:1005B000C9009093CA00A093CB00B093CC00BF9128
:1005C000AF919F918F912F910F900FBE0F901F9021
:1005D00018951F920F920FB60F921124EF92FF926F
:1005E0000F931F932F933F934F935F936F937F933B
:1005F0008F939F93AF93BF93EF93FF93809160008E
:10060000833509F05CC08091C9009091CA00A09127
:10061000CB00B091CC004091C3005091C4006091D8
:10062000C5007091C6007C018D01E41AF50A060B25
:10063000170BA80197018093C3009093C400A09367
:10064000C500B093C60011233CF4509540953095F9
:1006500021953F4F4F4F5F4FA8E5B2E00E946104E4
:1006600020E530E040E050E00E9430043093C100CB
:100670002093C0008091C7009091C8002091C000D5
:100680003091C1002817390750F48091C2008F3F84
:10069000B1F08091C2008B5F0E94500010C0209189
:1006A000C0003091C1008217930748F48091C200C6
:1006B000882329F08091C20085500E945000FF914C
:1006C000EF91BF91AF919F918F917F916F915F91CA
:1006D0004F913F912F911F910F91FF90EF900F90AD
:1006E0000FBE0F901F9018951F920F920FB60F928A
:1006F00011248F93EF93FF9381B1887F803881F02D
:1007000028F4803641F0803731F026C0803941F03E
:10071000803AC1F021C01092B70085EC86BF1EC0A0
:100720008091B700833058F4E091B70081E08E0FDC
:100730008093B700F0E083B1E854FF4F808385ECED
:1007400086BF0CC08091B700833019F481E080939C
:10075000B60085EC86BF02C085EC86BFFF91EF91A5
:100760008F910F900FBE0F901F9018950E94E00080
:100770000E9449000E9462000E9472000E947C0058
:1007800078940E94230160E080E00E94C5008BE91C
:1007900090E00E94D30060E081E00E94C50086EAFC
:1007A00090E00E94D300C0E08091B6008823A1F0C1
:1007B0001092B600E8EBF0E0D081618170E0762F16
:1007C00066278281682B8D2F0E942D01D33511F071
:1007D000D03511F40E94230180916000803531F4FE
:1007E0008091BB00882321F080E003C080E001C03D
:1007F00081E08823D1F04091C9005091CA006091F6
:10080000CB007091CC008091BC009091BD00A09174
:10081000BE00B091BF00481759076A077B072CF04C
:100820000E945B0081E08093BB00CF5FC83C88F0F2
:1008300080916000833521F40E94D501C0E009C099
:1008400080916000803521F40E94FC01C0E001C06D
:10085000C0E08FEC97E00197F1F700C00000A4CF53
:10086000A1E21A2EAA1BBB1BFD010DC0AA1FBB1FB4
:10087000EE1FFF1FA217B307E407F50720F0A21B26
:10088000B30BE40BF50B661F771F881F991F1A9493
:1008900069F760957095809590959B01AC01BD01BD
:1008A000CF010895A29FB001B39FC001A39F700D17
:1008B000811D1124911DB29F700D811D1124911D68
:1008C00008950E945204A59F900DB49F900DA49F7F
:1008D000800D911D11240895BB274A3031F49923CE
:1008E00022F4BDE2909581959F4F0C947804BB272C
:1008F000FB015527AA27880F991FAA1FA41710F0DC
:10090000A41B83955051B9F7A05DAA3308F0A95DE7
:10091000A193009779F7B111B1931192CB010C9487
:100920009104DC01FC01672F71917723E1F7329785
:1009300004C07C916D9370836291AE17BF07C8F3BA
:060940000895F894FFCFBA
:1009460045212120452D53544F50202121004D6F24
:10095600746F722068616C746564005447543A0081
:100966002052504D004355523A0020444F4E450008
:1009760020726576200020726576004D4355322040
:100986005265616479004177616974696E672063B5
:060996006D642E2E2E0000
:00000001FF
