:100000000C942A000C943F000C943F000C943F0089
:100010000C943F000C943F000C943F000C943F0064
:100020000C943F000C943F000C943F000C943F0054
:100030000C943F000C943F000C943F000C943F0044
:100040000C943F000C943F000C943F000C943F0034
:100050000C943F0011241FBECFE5D8E0DEBFCDBF1A
:1000600011E0A0E6B0E0ECE8F6E002C005900D92E9
:10007000A835B107D9F70E94CC010C9444030C9425
:10008000000011B880E280B984E086BF089594EA48
:1000900096BF06B607FEFDCF91B1987F983061F408
:1000A00083B984E886BF06B607FEFDCF81B1887F9D
:1000B000883121F481E0089580E0089580E008957A
:1000C00083B984E886BF06B607FEFDCF81B1887F7D
:1000D000883211F481E0089580E008951ABA1BBABD
:1000E0000895CC9B09C0E9B3EF70F0E0E95BFE4FE7
:1000F0008081CC99FECF089580E0089585B3886013
:1001000085BB82E08A95F1F700C085B3877F85BB08
:1001100085E88A95F1F70000089525B32F7030E146
:10012000839FC0011124822B85BB0E947E0008950D
:10013000CF93C82F662321F085B3846085BB03C0AD
:1001400085B38B7F85BB8C2F90E095958795959592
:10015000879595958795959587950E948D008C2F0D
:100160008F700E948D00C150C23030F48FE99FE043
:100170000197F1F700C00000CF91089560E00E9460
:1001800098000895811103C080E8860F02C080ECBA
:10019000860F0E94BE00089561E00E9498000895B5
:1001A000CF93DF93EC018881882321F021960E9470
:1001B000CC00F9CFDF91CF91089584B38C6F84BBCD
:1001C0002FE788E391E0215080409040E1F700C0A4
:1001D000000083E00E948D008FE097E20197F1F725
:1001E00000C0000083E00E948D008FEC97E0019733
:1001F000F1F700C0000083E00E948D008FEC97E0D3
:100200000197F1F700C0000082E00E948D008FECA2
:1002100097E00197F1F700C0000088E20E94BE005D
:100220008CE00E94BE0086E00E94BE0081E00E9439
:10023000BE008FE99FE00197F1F700C0000008952C
:1002400081E00E94BE008FE99FE00197F1F700C0B6
:100250000000089584E986BF85E88A95F1F70000DB
:1002600008951F93CF93DF93182FC62FD72F80E2C7
:100270000E944700882359F0812F0E9460008D2F33
:100280000E9460008C2F0E9460000E942A01DF9172
:10029000CF911F910895FF920F931F93CF93DF93F8
:1002A00000D000D000D0CDB7DEB7082FFE013196C8
:1002B00086E0DF011D928A95E9F760E0802F0E94B9
:1002C000C20080E690E00E94D00010E00E94710021
:1002D0008823E1F390ED980F9A3028F5153018F542
:1002E000FF24F394F10EE1E0F0E0EC0FFD1FE10FCD
:1002F000F11D8083E1E0F0E0EC0FFD1FEF0DF11D3B
:10030000108260E0802F0E94C20081E790E00E948E
:10031000D00060E0802F0E94C200CE0101960E94B2
:10032000D0001F2DD3CF8A32D9F41123C9F0115038
:10033000E1E0F0E0EC0FFD1FE10FF11D108260E045
:10034000802F0E94C20081E790E00E94D00060E010
:10035000802F0E94C200CE0101960E94D000B6CF2D
:10036000833211F0813439F4112329F0CE01019642
:100370000E94E90205C0843409F0A8CF80E090E033
:1003800026960FB6F894DEBF0FBECDBFDF91CF919A
:100390001F910F91FF900895CF93DF93CDB7DEB7F4
:1003A00028970FB6F894DEBF0FBECDBF0E94DD00C8
:1003B0000E946E000E9441000E94200160E080E0E7
:1003C0000E94C20082E890E00E94D00060E081E0DC
:1003D0000E94C20080E990E00E94D0002FEF83EDE0
:1003E00090E3215080409040E1F700C000000E945F
:1003F000200160E080E00E94C20083EA90E00E9459
:10040000D00060E081E00E94C20081EB90E00E9499
:10041000D00080E09FEB980F923028F0843419F0E0
:100420000E947100F7CF843409F50E94200160E03A
:1004300080E00E94C2008AEB90E00E94D00060E061
:1004400081E00E94C20089EC90E00E94D00060E050
:1004500070E085E40E9431012FEF8DE399E4215093
:1004600080409040E1F700C00000C1CF813409F026
:1004700059C00E94200160E080E00E94C20087ED28
:1004800090E00E94D00060E081E00E94C20082EE15
:1004900090E00E94D0002FEF87E893E12150804048
:1004A0009040E1F700C000000E94200160E080E081
:1004B0000E94C20082EF90E00E94D00081E00E9482
:1004C0004B018C01893B9B4010F008EB1BE00E9424
:1004D000200160E080E00E94C2008DEF90E00E9469
:1004E000D0004AE0BE016F5F7F4FC8010E94070342
:1004F00060E081E00E94C200CE0101960E94D0001F
:1005000088E091E00E94D000B80183E50E943101AB
:100510008FEF9EE924E2815090402040E1F700C037
:10052000000065CF823409F062CF0E94200160E0B4
:1005300080E00E94C2008DE091E00E94D00060E067
:1005400081E00E94C2008BE191E00E94D0008FEF19
:1005500097E823E1815090402040E1F700C000007F
:100560000E94200160E080E00E94C20088E291E0E9
:100570000E94D00081E00E944B018C010E9420016A
:1005800060E080E00E94C20084E391E00E94D0001D
:100590004AE0BE016F5F7F4FC8010E94070360E021
:1005A00081E00E94C200CE0101960E94D00082E448
:1005B00091E00E94D000B80180E50E9431018FEFE8
:1005C0009EE924E2815090402040E1F700C0000005
:1005D0000ECFFC0188279927E89421912032E9F376
:1005E000293010F02E30C8F32B3241F02D3239F47F
:1005F000689404C00E941203820F911D2191205320
:100600002A30C0F31EF4909581959F4F0895BB2723
:100610004A3031F4992322F4BDE2909581959F4FA1
:100620000C941B037AE0979F902D879F802D910D4E
:1006300011240895BB27FB015527AA27880F991F6E
:10064000AA1FA41710F0A41B83955051B9F7A05D01
:10065000AA3308F0A95DA193009779F7B111B1937E
:100660001192CB010C943403DC01FC01672F7191D2
:100670007723E1F7329704C07C916D937083629188
:0C068000AE17BF07C8F30895F894FFCF31
:10068C005B2A5D3D44454C205B235D3D4F4B202058
:10069C00002020202020202020202020202020206E
:1006AC0020004D6F746F7220436F6E74726F6C000C
:1006BC00413D53706420423D506F7320443D537450
:1006CC006F7000413D537065656420423D506F73FF
:1006DC0000443D452D53746F7000454D45524745C0
:1006EC004E43592053544F50004D6F746F72206815
:1006FC00616C74656421005350454544204D4F4452
:10070C00450052504D20286D61782033303030290F
:10071C003A00456E7465722052504D3A0053706524
:10072C006564207365743A002052504D00504F534D
:10073C004954494F4E204D4F4445005265766F6CDD
:10074C007574696F6E733A00456E746572205265EC
:10075C0076733A00506F736974696F6E20736574A9
:10076C003A002072657600313233413435364237E7
:08077C003839432A3023440000
:00000001FF
